{
  "contractName": "StarNotary",
  "abi": [
    {
      "constant": true,
      "inputs": [],
      "name": "starName",
      "outputs": [
        {
          "name": "",
          "type": "string"
        }
      ],
      "payable": false,
      "stateMutability": "view",
      "type": "function",
      "signature": "0x88d5896c"
    },
    {
      "constant": true,
      "inputs": [],
      "name": "starOwner",
      "outputs": [
        {
          "name": "",
          "type": "address"
        }
      ],
      "payable": false,
      "stateMutability": "view",
      "type": "function",
      "signature": "0xa434c272"
    },
    {
      "inputs": [],
      "payable": false,
      "stateMutability": "nonpayable",
      "type": "constructor",
      "signature": "constructor"
    },
    {
      "anonymous": false,
      "inputs": [
        {
          "indexed": false,
          "name": "owner",
          "type": "address"
        }
      ],
      "name": "starClaimed",
      "type": "event",
      "signature": "0xeb7b62b344bb3f85b6845f47ddc7878c8fc9946b9c4a4aacbd5274c883e9b66a"
    },
    {
      "constant": false,
      "inputs": [],
      "name": "claimStar",
      "outputs": [],
      "payable": false,
      "stateMutability": "nonpayable",
      "type": "function",
      "signature": "0xc5946ae0"
    }
  ],
  "bytecode": "0x608060405234801561001057600080fd5b506040805190810160405280600c81526020017f417765736f6d65205374617200000000000000000000000000000000000000008152506000908051906020019061005c929190610062565b50610107565b828054600181600116156101000203166002900490600052602060002090601f016020900481019282601f106100a357805160ff19168380011785556100d1565b828001600101855582156100d1579182015b828111156100d05782518255916020019190600101906100b5565b5b5090506100de91906100e2565b5090565b61010491905b808211156101005760008160009055506001016100e8565b5090565b90565b6102d0806101166000396000f3fe608060405234801561001057600080fd5b506004361061005e576000357c01000000000000000000000000000000000000000000000000000000009004806388d5896c14610063578063a434c272146100e6578063c5946ae014610130575b600080fd5b61006b61013a565b6040518080602001828103825283818151815260200191508051906020019080838360005b838110156100ab578082015181840152602081019050610090565b50505050905090810190601f1680156100d85780820380516001836020036101000a031916815260200191505b509250505060405180910390f35b6100ee6101d8565b604051808273ffffffffffffffffffffffffffffffffffffffff1673ffffffffffffffffffffffffffffffffffffffff16815260200191505060405180910390f35b6101386101fe565b005b60008054600181600116156101000203166002900480601f0160208091040260200160405190810160405280929190818152602001828054600181600116156101000203166002900480156101d05780601f106101a5576101008083540402835291602001916101d0565b820191906000526020600020905b8154815290600101906020018083116101b357829003601f168201915b505050505081565b600160009054906101000a900473ffffffffffffffffffffffffffffffffffffffff1681565b33600160006101000a81548173ffffffffffffffffffffffffffffffffffffffff021916908373ffffffffffffffffffffffffffffffffffffffff1602179055507feb7b62b344bb3f85b6845f47ddc7878c8fc9946b9c4a4aacbd5274c883e9b66a33604051808273ffffffffffffffffffffffffffffffffffffffff1673ffffffffffffffffffffffffffffffffffffffff16815260200191505060405180910390a156fea165627a7a723058203f824b8cf468a6956e4cd175af4a734af5fa38f6a0c266a184a02f67a09265700029",
  "source": "pragma solidity ^0.5.0;\ncontract StarNotary {\n\n    string public starName;\n    address public starOwner;\n\n    event starClaimed(address owner);\n\n    constructor() public {\n        starName = \"Awesome Star\";\n    }\n\n    function claimStar() public {\n        starOwner = msg.sender;\n        emit starClaimed(msg.sender);\n    }\n\n}",
  "sourcePath": "/Users/pavithra/Documents/Truffle /contracts/StarNotary.sol",
  "compiler": {
    "name": "solc",
    "version": "0.5.2+commit.1df8f40c.Emscripten.clang"
  },
  "schemaVersion": "3.0.0-beta.2",
  "updatedAt": "2019-03-03T17:24:47.454Z",
  "devdoc": {
    "methods": {}
  },
  "userdoc": {
    "methods": {}
  }
}